{
  "contractName": "Pregunta3",
  "abi": [
    {
      "inputs": [],
      "payable": false,
      "stateMutability": "nonpayable",
      "type": "constructor"
    },
    {
      "constant": true,
      "inputs": [],
      "name": "estado",
      "outputs": [
        {
          "internalType": "enum Pregunta3.Estado",
          "name": "",
          "type": "uint8"
        }
      ],
      "payable": false,
      "stateMutability": "view",
      "type": "function"
    },
    {
      "constant": true,
      "inputs": [
        {
          "internalType": "int8",
          "name": "",
          "type": "int8"
        }
      ],
      "name": "pregunta",
      "outputs": [
        {
          "internalType": "address",
          "name": "autor",
          "type": "address"
        },
        {
          "internalType": "string",
          "name": "textoPregunta",
          "type": "string"
        },
        {
          "internalType": "string",
          "name": "respuestaCorrecta",
          "type": "string"
        },
        {
          "internalType": "uint8",
          "name": "puntaje",
          "type": "uint8"
        },
        {
          "internalType": "uint256",
          "name": "fechaCreacion",
          "type": "uint256"
        }
      ],
      "payable": false,
      "stateMutability": "view",
      "type": "function"
    },
    {
      "constant": true,
      "inputs": [
        {
          "internalType": "address",
          "name": "",
          "type": "address"
        },
        {
          "internalType": "uint256",
          "name": "",
          "type": "uint256"
        }
      ],
      "name": "respuestas",
      "outputs": [
        {
          "internalType": "int8",
          "name": "idPregunta",
          "type": "int8"
        },
        {
          "internalType": "string",
          "name": "textoRespuesta",
          "type": "string"
        },
        {
          "internalType": "uint256",
          "name": "puntaje",
          "type": "uint256"
        }
      ],
      "payable": false,
      "stateMutability": "view",
      "type": "function"
    },
    {
      "constant": false,
      "inputs": [
        {
          "internalType": "enum Pregunta3.Estado",
          "name": "nuevoEstado",
          "type": "uint8"
        }
      ],
      "name": "cambiarEstado",
      "outputs": [],
      "payable": false,
      "stateMutability": "nonpayable",
      "type": "function"
    },
    {
      "constant": false,
      "inputs": [],
      "name": "getEstado",
      "outputs": [
        {
          "internalType": "enum Pregunta3.Estado",
          "name": "",
          "type": "uint8"
        }
      ],
      "payable": false,
      "stateMutability": "nonpayable",
      "type": "function"
    },
    {
      "constant": false,
      "inputs": [
        {
          "internalType": "int8",
          "name": "idPregunta",
          "type": "int8"
        }
      ],
      "name": "obtenerPregunta",
      "outputs": [
        {
          "components": [
            {
              "internalType": "address",
              "name": "autor",
              "type": "address"
            },
            {
              "internalType": "string",
              "name": "textoPregunta",
              "type": "string"
            },
            {
              "internalType": "string[]",
              "name": "opciones",
              "type": "string[]"
            },
            {
              "internalType": "string",
              "name": "respuestaCorrecta",
              "type": "string"
            },
            {
              "internalType": "uint8",
              "name": "puntaje",
              "type": "uint8"
            },
            {
              "internalType": "uint256",
              "name": "fechaCreacion",
              "type": "uint256"
            }
          ],
          "internalType": "struct Pregunta3.Pregunta",
          "name": "",
          "type": "tuple"
        }
      ],
      "payable": false,
      "stateMutability": "nonpayable",
      "type": "function"
    },
    {
      "constant": false,
      "inputs": [
        {
          "internalType": "address",
          "name": "_autor",
          "type": "address"
        },
        {
          "internalType": "string",
          "name": "texto",
          "type": "string"
        },
        {
          "internalType": "string[]",
          "name": "_opciones",
          "type": "string[]"
        },
        {
          "internalType": "string",
          "name": "respuesta",
          "type": "string"
        },
        {
          "internalType": "uint8",
          "name": "puntos",
          "type": "uint8"
        }
      ],
      "name": "nuevaPregunta",
      "outputs": [],
      "payable": false,
      "stateMutability": "nonpayable",
      "type": "function"
    },
    {
      "constant": false,
      "inputs": [
        {
          "internalType": "int8",
          "name": "idPregunta",
          "type": "int8"
        },
        {
          "internalType": "string",
          "name": "respuesta",
          "type": "string"
        }
      ],
      "name": "responderPregunta",
      "outputs": [],
      "payable": false,
      "stateMutability": "nonpayable",
      "type": "function"
    },
    {
      "constant": false,
      "inputs": [
        {
          "internalType": "address",
          "name": "usuario",
          "type": "address"
        }
      ],
      "name": "promedioRespuestas",
      "outputs": [
        {
          "internalType": "uint256",
          "name": "",
          "type": "uint256"
        }
      ],
      "payable": false,
      "stateMutability": "nonpayable",
      "type": "function"
    }
  ],
  "bytecode": "0x60806040526001600360016101000a81548160ff021916908360000b60ff16021790555034801561002f57600080fd5b50336000806101000a81548173ffffffffffffffffffffffffffffffffffffffff021916908373ffffffffffffffffffffffffffffffffffffffff160217905550611c6d8061007f6000396000f3fe608060405234801561001057600080fd5b50600436106100935760003560e01c806360f9f75c1161006657806360f9f75c14610134578063688e3467146101665780636d07d7e31461018457806380567f38146101a2578063b2b5e61f146101d257610093565b806311a6c2c61461009857806322d85f71146100c85780633e079438146100e45780633fbb7fba14610100575b600080fd5b6100b260048036036100ad91908101906112b9565b6101ee565b6040516100bf919061199f565b60405180910390f35b6100e260048036036100dd91908101906112e2565b61035d565b005b6100fe60048036036100f991908101906113dd565b61059d565b005b61011a60048036036101159190810190611406565b610652565b60405161012b959493929190611843565b60405180910390f35b61014e600480360361014991908101906113a1565b6107e5565b60405161015d939291906118bf565b60405180910390f35b61016e6108ce565b60405161017b91906118a4565b60405180910390f35b61018c6108e1565b60405161019991906118a4565b60405180910390f35b6101bc60048036036101b79190810190611406565b6108f8565b6040516101c9919061197d565b60405180910390f35b6101ec60048036036101e7919081019061142f565b610c9d565b005b600080600090506000600260008573ffffffffffffffffffffffffffffffffffffffff1673ffffffffffffffffffffffffffffffffffffffff16815260200190815260200160002080549050141561024a576000915050610358565b60008090505b600260008573ffffffffffffffffffffffffffffffffffffffff1673ffffffffffffffffffffffffffffffffffffffff1681526020019081526020016000208054905081101561030757600260008573ffffffffffffffffffffffffffffffffffffffff1673ffffffffffffffffffffffffffffffffffffffff16815260200190815260200160002081815481106102e457fe5b906000526020600020906003020160020154820191508080600101915050610250565b50600260008473ffffffffffffffffffffffffffffffffffffffff1673ffffffffffffffffffffffffffffffffffffffff16815260200190815260200160002080549050818161035357fe5b049150505b919050565b6000600381111561036a57fe5b600360009054906101000a900460ff16600381111561038557fe5b14806103b5575060038081111561039857fe5b600360009054906101000a900460ff1660038111156103b357fe5b145b6103f4576040517f08c379a00000000000000000000000000000000000000000000000000000000081526004016103eb9061195d565b60405180910390fd5b6103fc610f6c565b85816000019073ffffffffffffffffffffffffffffffffffffffff16908173ffffffffffffffffffffffffffffffffffffffff168152505084816020018190525083816040018190525082816060018190525081816080019060ff16908160ff1681525050428160a00181815250508060016000600360019054906101000a900460000b60000b60000b815260200190815260200160002060008201518160000160006101000a81548173ffffffffffffffffffffffffffffffffffffffff021916908373ffffffffffffffffffffffffffffffffffffffff16021790555060208201518160010190805190602001906104f7929190610fbb565b50604082015181600201908051906020019061051492919061103b565b506060820151816003019080519060200190610531929190610fbb565b5060808201518160040160006101000a81548160ff021916908360ff16021790555060a082015181600501559050506003600181819054906101000a900460000b8092919060010191906101000a81548160ff021916908360000b60ff16021790555050505050505050565b6000809054906101000a900473ffffffffffffffffffffffffffffffffffffffff1673ffffffffffffffffffffffffffffffffffffffff163373ffffffffffffffffffffffffffffffffffffffff161461062c576040517f08c379a0000000000000000000000000000000000000000000000000000000008152600401610623906118fd565b60405180910390fd5b80600360006101000a81548160ff0219169083600381111561064a57fe5b021790555050565b60016020528060005260406000206000915090508060000160009054906101000a900473ffffffffffffffffffffffffffffffffffffffff1690806001018054600181600116156101000203166002900480601f0160208091040260200160405190810160405280929190818152602001828054600181600116156101000203166002900480156107245780601f106106f957610100808354040283529160200191610724565b820191906000526020600020905b81548152906001019060200180831161070757829003601f168201915b505050505090806003018054600181600116156101000203166002900480601f0160208091040260200160405190810160405280929190818152602001828054600181600116156101000203166002900480156107c25780601f10610797576101008083540402835291602001916107c2565b820191906000526020600020905b8154815290600101906020018083116107a557829003601f168201915b5050505050908060040160009054906101000a900460ff16908060050154905085565b600260205281600052604060002081815481106107fe57fe5b9060005260206000209060030201600091509150508060000160009054906101000a900460000b90806001018054600181600116156101000203166002900480601f0160208091040260200160405190810160405280929190818152602001828054600181600116156101000203166002900480156108be5780601f10610893576101008083540402835291602001916108be565b820191906000526020600020905b8154815290600101906020018083116108a157829003601f168201915b5050505050908060020154905083565b600360009054906101000a900460ff1681565b6000600360009054906101000a900460ff16905090565b610900610f6c565b6000600381111561090d57fe5b600360009054906101000a900460ff16600381111561092857fe5b148061095957506001600381111561093c57fe5b600360009054906101000a900460ff16600381111561095757fe5b145b8061098957506002600381111561096c57fe5b600360009054906101000a900460ff16600381111561098757fe5b145b6109c8576040517f08c379a00000000000000000000000000000000000000000000000000000000081526004016109bf9061195d565b60405180910390fd5b600160008360000b60000b81526020019081526020016000206040518060c00160405290816000820160009054906101000a900473ffffffffffffffffffffffffffffffffffffffff1673ffffffffffffffffffffffffffffffffffffffff1673ffffffffffffffffffffffffffffffffffffffff168152602001600182018054600181600116156101000203166002900480601f016020809104026020016040519081016040528092919081815260200182805460018160011615610100020316600290048015610adb5780601f10610ab057610100808354040283529160200191610adb565b820191906000526020600020905b815481529060010190602001808311610abe57829003601f168201915b5050505050815260200160028201805480602002602001604051908101604052809291908181526020016000905b82821015610bc5578382906000526020600020018054600181600116156101000203166002900480601f016020809104026020016040519081016040528092919081815260200182805460018160011615610100020316600290048015610bb15780601f10610b8657610100808354040283529160200191610bb1565b820191906000526020600020905b815481529060010190602001808311610b9457829003601f168201915b505050505081526020019060010190610b09565b505050508152602001600382018054600181600116156101000203166002900480601f016020809104026020016040519081016040528092919081815260200182805460018160011615610100020316600290048015610c665780601f10610c3b57610100808354040283529160200191610c66565b820191906000526020600020905b815481529060010190602001808311610c4957829003601f168201915b505050505081526020016004820160009054906101000a900460ff1660ff1660ff1681526020016005820154815250509050919050565b60006003811115610caa57fe5b600360009054906101000a900460ff166003811115610cc557fe5b1480610cf6575060026003811115610cd957fe5b600360009054906101000a900460ff166003811115610cf457fe5b145b610d35576040517f08c379a0000000000000000000000000000000000000000000000000000000008152600401610d2c9061195d565b60405180910390fd5b813373ffffffffffffffffffffffffffffffffffffffff16610d56826108f8565b6000015173ffffffffffffffffffffffffffffffffffffffff161415610db1576040517f08c379a0000000000000000000000000000000000000000000000000000000008152600401610da89061193d565b60405180910390fd5b826001603c610dbf836108f8565b60a00151420381610dcc57fe5b0410610e0d576040517f08c379a0000000000000000000000000000000000000000000000000000000008152600401610e049061191d565b60405180910390fd5b6000610e17610f6c565b610e20866108f8565b905084604051602001610e33919061182c565b604051602081830303815290604052805190602001208160600151604051602001610e5e9190611815565b604051602081830303815290604052805190602001201415610e865780608001519150610e8b565b600091505b600260003373ffffffffffffffffffffffffffffffffffffffff1673ffffffffffffffffffffffffffffffffffffffff16815260200190815260200160002060405180606001604052808860000b81526020018781526020018460ff168152509080600181540180825580915050906001820390600052602060002090600302016000909192909190915060008201518160000160006101000a81548160ff021916908360000b60ff1602179055506020820151816001019080519060200190610f56929190610fbb565b5060408201518160020155505050505050505050565b6040518060c00160405280600073ffffffffffffffffffffffffffffffffffffffff168152602001606081526020016060815260200160608152602001600060ff168152602001600081525090565b828054600181600116156101000203166002900490600052602060002090601f016020900481019282601f10610ffc57805160ff191683800117855561102a565b8280016001018555821561102a579182015b8281111561102957825182559160200191906001019061100e565b5b509050611037919061109b565b5090565b82805482825590600052602060002090810192821561108a579160200282015b82811115611089578251829080519060200190611079929190610fbb565b509160200191906001019061105b565b5b50905061109791906110c0565b5090565b6110bd91905b808211156110b95760008160009055506001016110a1565b5090565b90565b6110e991905b808211156110e557600081816110dc91906110ec565b506001016110c6565b5090565b90565b50805460018160011615610100020316600290046000825580601f106111125750611131565b601f016020900490600052602060002090810190611130919061109b565b5b50565b60008135905061114381611bbe565b92915050565b600082601f83011261115a57600080fd5b813561116d611168826119e7565b6119ba565b9150818183526020840193506020810190508360005b838110156111b3578135860161119988826111e7565b845260208401935060208301925050600181019050611183565b5050505092915050565b6000813590506111cc81611bd5565b92915050565b6000813590506111e181611be5565b92915050565b600082601f8301126111f857600080fd5b813561120b61120682611a0f565b6119ba565b9150808252602083016020830185838301111561122757600080fd5b611232838284611b5e565b50505092915050565b600082601f83011261124c57600080fd5b813561125f61125a82611a3b565b6119ba565b9150808252602083016020830185838301111561127b57600080fd5b611286838284611b5e565b50505092915050565b60008135905061129e81611bfc565b92915050565b6000813590506112b381611c13565b92915050565b6000602082840312156112cb57600080fd5b60006112d984828501611134565b91505092915050565b600080600080600060a086880312156112fa57600080fd5b600061130888828901611134565b955050602086013567ffffffffffffffff81111561132557600080fd5b6113318882890161123b565b945050604086013567ffffffffffffffff81111561134e57600080fd5b61135a88828901611149565b935050606086013567ffffffffffffffff81111561137757600080fd5b6113838882890161123b565b9250506080611394888289016112a4565b9150509295509295909350565b600080604083850312156113b457600080fd5b60006113c285828601611134565b92505060206113d38582860161128f565b9150509250929050565b6000602082840312156113ef57600080fd5b60006113fd848285016111bd565b91505092915050565b60006020828403121561141857600080fd5b6000611426848285016111d2565b91505092915050565b6000806040838503121561144257600080fd5b6000611450858286016111d2565b925050602083013567ffffffffffffffff81111561146d57600080fd5b6114798582860161123b565b9150509250929050565b600061148f8383611579565b905092915050565b6114a081611ae3565b82525050565b6114af81611ae3565b82525050565b60006114c082611a77565b6114ca8185611aa5565b9350836020820285016114dc85611a67565b8060005b8581101561151857848403895281516114f98582611483565b945061150483611a98565b925060208a019950506001810190506114e0565b50829750879550505050505092915050565b61153381611b4c565b82525050565b61154281611b08565b82525050565b600061155382611a8d565b61155d8185611ad8565b935061156d818560208601611b6d565b80840191505092915050565b600061158482611a82565b61158e8185611ab6565b935061159e818560208601611b6d565b6115a781611ba0565b840191505092915050565b60006115bd82611a82565b6115c78185611ac7565b93506115d7818560208601611b6d565b6115e081611ba0565b840191505092915050565b60006115f682611a82565b6116008185611ad8565b9350611610818560208601611b6d565b80840191505092915050565b6000611629601183611ac7565b91507f4e6f207469656e65207065726d69736f730000000000000000000000000000006000830152602082019050919050565b6000611669600983611ac7565b91507f4e4f2041435449564100000000000000000000000000000000000000000000006000830152602082019050919050565b60006116a9602683611ac7565b91507f4e6f20707565646520726573706f6e64657220756e612070726567756e74612060008301527f70726f70696100000000000000000000000000000000000000000000000000006020830152604082019050919050565b600061170f601383611ac7565b91507f4e6f207075656465207265616c697a61727365000000000000000000000000006000830152602082019050919050565b600060c08301600083015161175a6000860182611497565b50602083015184820360208601526117728282611579565b9150506040830151848203604086015261178c82826114b5565b915050606083015184820360608601526117a68282611579565b91505060808301516117bb60808601826117f7565b5060a08301516117ce60a08601826117d9565b508091505092915050565b6117e281611b35565b82525050565b6117f181611b35565b82525050565b61180081611b3f565b82525050565b61180f81611b3f565b82525050565b600061182182846115eb565b915081905092915050565b60006118388284611548565b915081905092915050565b600060a08201905061185860008301886114a6565b818103602083015261186a81876115b2565b9050818103604083015261187e81866115b2565b905061188d6060830185611806565b61189a60808301846117e8565b9695505050505050565b60006020820190506118b9600083018461152a565b92915050565b60006060820190506118d46000830186611539565b81810360208301526118e681856115b2565b90506118f560408301846117e8565b949350505050565b600060208201905081810360008301526119168161161c565b9050919050565b600060208201905081810360008301526119368161165c565b9050919050565b600060208201905081810360008301526119568161169c565b9050919050565b6000602082019050818103600083015261197681611702565b9050919050565b600060208201905081810360008301526119978184611742565b905092915050565b60006020820190506119b460008301846117e8565b92915050565b6000604051905081810181811067ffffffffffffffff821117156119dd57600080fd5b8060405250919050565b600067ffffffffffffffff8211156119fe57600080fd5b602082029050602081019050919050565b600067ffffffffffffffff821115611a2657600080fd5b601f19601f8301169050602081019050919050565b600067ffffffffffffffff821115611a5257600080fd5b601f19601f8301169050602081019050919050565b6000819050602082019050919050565b600081519050919050565b600081519050919050565b600081519050919050565b6000602082019050919050565b600082825260208201905092915050565b600082825260208201905092915050565b600082825260208201905092915050565b600081905092915050565b6000611aee82611b15565b9050919050565b6000819050611b0382611bb1565b919050565b60008160000b9050919050565b600073ffffffffffffffffffffffffffffffffffffffff82169050919050565b6000819050919050565b600060ff82169050919050565b6000611b5782611af5565b9050919050565b82818337600083830152505050565b60005b83811015611b8b578082015181840152602081019050611b70565b83811115611b9a576000848401525b50505050565b6000601f19601f8301169050919050565b60048110611bbb57fe5b50565b611bc781611ae3565b8114611bd257600080fd5b50565b60048110611be257600080fd5b50565b611bee81611b08565b8114611bf957600080fd5b50565b611c0581611b35565b8114611c1057600080fd5b50565b611c1c81611b3f565b8114611c2757600080fd5b5056fea365627a7a723158201a1d601bd3269f800cc59c207c560ad6a541f7dd8e884dfcd661aacc09f0bbec6c6578706572696d656e74616cf564736f6c63430005100040",
  "source": "// pragma solidity >=0.6.8;\r\npragma solidity >= 0.5.16;\r\npragma experimental ABIEncoderV2;\r\n\r\ncontract Pregunta3 {\r\n        \r\n    address owner;\r\n    \r\n    constructor() public{\r\n        owner = msg.sender; \r\n    }\r\n\r\n    struct Pregunta {\r\n        address autor;\r\n        string textoPregunta;\r\n        string[] opciones;\r\n        string respuestaCorrecta;\r\n        uint8 puntaje;\r\n        uint fechaCreacion;\r\n    }\r\n\r\n    mapping(int8 => Pregunta) public pregunta;\r\n\r\n    struct Respuesta {\r\n        int8 idPregunta;\r\n        string textoRespuesta;\r\n        uint256 puntaje;\r\n    }\r\n\r\n    mapping(address => Respuesta[]) public respuestas;\r\n\r\n    enum Estado {Activo , Lectura , Responder , Bootstrap } Estado public estado;\r\n\r\n    int8 contadorIds = 1;\r\n\r\n    modifier esDuenio() {\r\n        require(msg.sender == owner, \"No tiene permisos\");\r\n        _;\r\n    }\r\n\r\n    modifier puedeConsultar() {\r\n        require(estado == Estado.Activo || estado == Estado.Lectura || estado == Estado.Responder, \"No puede realizarse\");\r\n        _;\r\n    }\r\n    \r\n    modifier puedeResponder() {\r\n        require(estado == Estado.Activo || estado == Estado.Responder, \"No puede realizarse\");\r\n        _;\r\n    }\r\n\r\n    modifier puedeCrear() {\r\n        require(estado == Estado.Activo || estado == Estado.Bootstrap, \"No puede realizarse\");\r\n        _;\r\n    }\r\n\r\n    modifier noEsAutor(int8 idPregunta){\r\n        require(obtenerPregunta(idPregunta).autor != msg.sender, \"No puede responder una pregunta propia\");\r\n        _;\r\n    }\r\n\r\n    modifier estaActiva(int8 idPregunta) {\r\n        require(((block.timestamp - obtenerPregunta(idPregunta).fechaCreacion) / 60) < 1, \"NO ACTIVA\");\r\n        _;\r\n    }\r\n\r\n\r\n    /* FUNCIONES */\r\n\r\n    function cambiarEstado(Estado nuevoEstado) public esDuenio{\r\n        estado = nuevoEstado;\r\n    }\r\n\r\n    function getEstado() public returns (Estado){\r\n        return estado;\r\n    }\r\n\r\n    function obtenerPregunta(int8 idPregunta) public puedeConsultar() returns (Pregunta memory) {\r\n        return pregunta[idPregunta];\r\n    }\r\n\r\n    function nuevaPregunta(address _autor, string memory texto, string[] memory _opciones, string memory respuesta, uint8 puntos) public puedeCrear{\r\n        Pregunta memory _pregunta;\r\n\r\n        _pregunta.autor = _autor;\r\n        _pregunta.textoPregunta = texto;\r\n        _pregunta.opciones = _opciones;\r\n        _pregunta.respuestaCorrecta = respuesta;\r\n        _pregunta.puntaje = puntos;\r\n        _pregunta.fechaCreacion = block.timestamp; \r\n\r\n        pregunta[contadorIds] = _pregunta;\r\n        contadorIds++;\r\n    }\r\n\r\n    function responderPregunta(int8 idPregunta, string memory respuesta) public puedeResponder noEsAutor(idPregunta) estaActiva(idPregunta) {\r\n        uint8 puntosObtenidos;\r\n        Pregunta memory laPregunta = obtenerPregunta(idPregunta);\r\n\r\n        if (keccak256(abi.encodePacked((laPregunta.respuestaCorrecta))) == keccak256(abi.encodePacked((respuesta)))){\r\n            puntosObtenidos = laPregunta.puntaje;\r\n        }else{\r\n            puntosObtenidos = 0;\r\n        }\r\n\r\n        respuestas[msg.sender].push(Respuesta(idPregunta, respuesta, puntosObtenidos));\r\n    }\r\n\r\n    function promedioRespuestas(address usuario) public returns (uint256){\r\n        uint256 acumulador=0;\r\n\r\n        if(respuestas[usuario].length == 0){\r\n            return 0;\r\n        }\r\n\r\n        for(uint256 i = 0; i < respuestas[usuario].length; i++) {\r\n            acumulador += respuestas[usuario][i].puntaje;\r\n        }\r\n        \r\n        return acumulador/respuestas[usuario].length;\r\n    } \r\n    \r\n}",
  "sourcePath": "C:/Users/santi/Documents/git/blockchain/tp-2021-front-grupo-5/blockchain/truffle/contracts/Pregunta3.sol",
  "compiler": {
    "name": "solc",
    "version": "0.5.16+commit.9c3226ce.Emscripten.clang"
  },
  "schemaVersion": "3.4.1",
  "updatedAt": "2021-06-19T05:25:56.875Z",
  "networkType": "ethereum",
  "devdoc": {
    "methods": {}
  },
  "userdoc": {
    "methods": {}
  }
}