{
  "contractName": "Pregunta3",
  "abi": [
    {
      "inputs": [],
      "payable": false,
      "stateMutability": "nonpayable",
      "type": "constructor"
    },
    {
      "constant": true,
      "inputs": [],
      "name": "estado",
      "outputs": [
        {
          "internalType": "enum Pregunta3.Estado",
          "name": "",
          "type": "uint8"
        }
      ],
      "payable": false,
      "stateMutability": "view",
      "type": "function"
    },
    {
      "constant": true,
      "inputs": [
        {
          "internalType": "uint256",
          "name": "",
          "type": "uint256"
        }
      ],
      "name": "preguntas",
      "outputs": [
        {
          "internalType": "int8",
          "name": "id",
          "type": "int8"
        },
        {
          "internalType": "address",
          "name": "autor",
          "type": "address"
        },
        {
          "internalType": "string",
          "name": "textoPregunta",
          "type": "string"
        },
        {
          "internalType": "string",
          "name": "respuestaCorrecta",
          "type": "string"
        },
        {
          "internalType": "int8",
          "name": "puntaje",
          "type": "int8"
        }
      ],
      "payable": false,
      "stateMutability": "view",
      "type": "function"
    },
    {
      "constant": false,
      "inputs": [],
      "name": "getEstado",
      "outputs": [
        {
          "internalType": "enum Pregunta3.Estado",
          "name": "",
          "type": "uint8"
        }
      ],
      "payable": false,
      "stateMutability": "nonpayable",
      "type": "function"
    },
    {
      "constant": false,
      "inputs": [
        {
          "internalType": "enum Pregunta3.Estado",
          "name": "nuevoEstado",
          "type": "uint8"
        }
      ],
      "name": "cambiarEstado",
      "outputs": [],
      "payable": false,
      "stateMutability": "nonpayable",
      "type": "function"
    },
    {
      "constant": false,
      "inputs": [
        {
          "internalType": "int8",
          "name": "idPregunta",
          "type": "int8"
        }
      ],
      "name": "obtenerPregunta",
      "outputs": [
        {
          "components": [
            {
              "internalType": "int8",
              "name": "id",
              "type": "int8"
            },
            {
              "internalType": "address",
              "name": "autor",
              "type": "address"
            },
            {
              "internalType": "string",
              "name": "textoPregunta",
              "type": "string"
            },
            {
              "internalType": "string[]",
              "name": "opciones",
              "type": "string[]"
            },
            {
              "internalType": "string",
              "name": "respuestaCorrecta",
              "type": "string"
            },
            {
              "internalType": "int8",
              "name": "puntaje",
              "type": "int8"
            }
          ],
          "internalType": "struct Pregunta3.Pregunta",
          "name": "pregunta",
          "type": "tuple"
        }
      ],
      "payable": false,
      "stateMutability": "nonpayable",
      "type": "function"
    },
    {
      "constant": false,
      "inputs": [
        {
          "internalType": "string",
          "name": "texto",
          "type": "string"
        },
        {
          "internalType": "string[]",
          "name": "_opciones",
          "type": "string[]"
        },
        {
          "internalType": "string",
          "name": "respuesta",
          "type": "string"
        },
        {
          "internalType": "int8",
          "name": "puntos",
          "type": "int8"
        }
      ],
      "name": "nuevaPregunta",
      "outputs": [
        {
          "components": [
            {
              "internalType": "int8",
              "name": "id",
              "type": "int8"
            },
            {
              "internalType": "address",
              "name": "autor",
              "type": "address"
            },
            {
              "internalType": "string",
              "name": "textoPregunta",
              "type": "string"
            },
            {
              "internalType": "string[]",
              "name": "opciones",
              "type": "string[]"
            },
            {
              "internalType": "string",
              "name": "respuestaCorrecta",
              "type": "string"
            },
            {
              "internalType": "int8",
              "name": "puntaje",
              "type": "int8"
            }
          ],
          "internalType": "struct Pregunta3.Pregunta",
          "name": "pregunta",
          "type": "tuple"
        }
      ],
      "payable": false,
      "stateMutability": "nonpayable",
      "type": "function"
    },
    {
      "constant": false,
      "inputs": [
        {
          "internalType": "int8",
          "name": "idPregunta",
          "type": "int8"
        },
        {
          "internalType": "string",
          "name": "respuesta",
          "type": "string"
        }
      ],
      "name": "responderPregunta",
      "outputs": [
        {
          "components": [
            {
              "internalType": "address",
              "name": "usuario",
              "type": "address"
            },
            {
              "internalType": "int8",
              "name": "idPregunta",
              "type": "int8"
            },
            {
              "internalType": "string",
              "name": "textoRespuesta",
              "type": "string"
            },
            {
              "internalType": "int8",
              "name": "puntaje",
              "type": "int8"
            }
          ],
          "internalType": "struct Pregunta3.Respuesta",
          "name": "respuestaRetornada",
          "type": "tuple"
        }
      ],
      "payable": false,
      "stateMutability": "nonpayable",
      "type": "function"
    },
    {
      "constant": true,
      "inputs": [],
      "name": "getSender",
      "outputs": [
        {
          "internalType": "address",
          "name": "",
          "type": "address"
        }
      ],
      "payable": false,
      "stateMutability": "view",
      "type": "function"
    },
    {
      "constant": true,
      "inputs": [],
      "name": "getEnum",
      "outputs": [
        {
          "internalType": "enum Pregunta3.Estado",
          "name": "",
          "type": "uint8"
        }
      ],
      "payable": false,
      "stateMutability": "view",
      "type": "function"
    }
  ],
  "bytecode": "0x608060405234801561001057600080fd5b50336000806101000a81548173ffffffffffffffffffffffffffffffffffffffff021916908373ffffffffffffffffffffffffffffffffffffffff160217905550611685806100606000396000f3fe608060405234801561001057600080fd5b50600436106100935760003560e01c806380567f381161006657806380567f381461010e578063b2b5e61f1461013e578063ca2727641461016e578063dcd32f53146101a2578063f0ebce5a146101d257610093565b80633e079438146100985780635e01eb5a146100b4578063688e3467146100d25780636d07d7e3146100f0575b600080fd5b6100b260048036036100ad9190810190610da2565b6101f0565b005b6100bc6102af565b6040516100c991906112d2565b60405180910390f35b6100da6102b7565b6040516100e791906112ed565b60405180910390f35b6100f86102ca565b60405161010591906112ed565b60405180910390f35b61012860048036036101239190810190610dcb565b6102e1565b60405161013591906113c9565b60405180910390f35b61015860048036036101539190810190610df4565b6106f6565b60405161016591906113eb565b60405180910390f35b61018860048036036101839190810190610ef3565b6108da565b604051610199959493929190611308565b60405180910390f35b6101bc60048036036101b79190810190610e48565b610a87565b6040516101c991906113c9565b60405180910390f35b6101da610bac565b6040516101e791906112ed565b60405180910390f35b6000809054906101000a900473ffffffffffffffffffffffffffffffffffffffff1673ffffffffffffffffffffffffffffffffffffffff163373ffffffffffffffffffffffffffffffffffffffff1614801561024a575060005b610289576040517f08c379a0000000000000000000000000000000000000000000000000000000008152600401610280906113a9565b60405180910390fd5b80600260006101000a81548160ff021916908360038111156102a757fe5b021790555050565b600033905090565b600260009054906101000a900460ff1681565b6000600260009054906101000a900460ff16905090565b6102e9610bb5565b600060038111156102f657fe5b600260009054906101000a900460ff16600381111561031157fe5b148061034257506001600381111561032557fe5b600260009054906101000a900460ff16600381111561034057fe5b145b8061037257506002600381111561035557fe5b600260009054906101000a900460ff16600381111561037057fe5b145b6103b1576040517f08c379a00000000000000000000000000000000000000000000000000000000081526004016103a890611389565b60405180910390fd5b60008090505b6001805490508110156106f0578260000b600182815481106103d557fe5b906000526020600020906005020160000160009054906101000a900460000b60000b14156106e3576001818154811061040a57fe5b90600052602060002090600502016040518060c00160405290816000820160009054906101000a900460000b60000b60000b81526020016000820160019054906101000a900473ffffffffffffffffffffffffffffffffffffffff1673ffffffffffffffffffffffffffffffffffffffff1673ffffffffffffffffffffffffffffffffffffffff168152602001600182018054600181600116156101000203166002900480601f01602080910402602001604051908101604052809291908181526020018280546001816001161561010002031660029004801561052f5780601f106105045761010080835404028352916020019161052f565b820191906000526020600020905b81548152906001019060200180831161051257829003601f168201915b5050505050815260200160028201805480602002602001604051908101604052809291908181526020016000905b82821015610619578382906000526020600020018054600181600116156101000203166002900480601f0160208091040260200160405190810160405280929190818152602001828054600181600116156101000203166002900480156106055780601f106105da57610100808354040283529160200191610605565b820191906000526020600020905b8154815290600101906020018083116105e857829003601f168201915b50505050508152602001906001019061055d565b505050508152602001600382018054600181600116156101000203166002900480601f0160208091040260200160405190810160405280929190818152602001828054600181600116156101000203166002900480156106ba5780601f1061068f576101008083540402835291602001916106ba565b820191906000526020600020905b81548152906001019060200180831161069d57829003601f168201915b505050505081526020016004820160009054906101000a900460000b60000b60000b8152505091505b80806001019150506103b7565b50919050565b6106fe610c05565b6000600381111561070b57fe5b600260009054906101000a900460ff16600381111561072657fe5b148061075757506002600381111561073a57fe5b600260009054906101000a900460ff16600381111561075557fe5b145b610796576040517f08c379a000000000000000000000000000000000000000000000000000000000815260040161078d90611389565b60405180910390fd5b82338073ffffffffffffffffffffffffffffffffffffffff166107b8836102e1565b6020015173ffffffffffffffffffffffffffffffffffffffff161415610813576040517f08c379a000000000000000000000000000000000000000000000000000000000815260040161080a90611369565b60405180910390fd5b600061081d610bb5565b610826876102e1565b90508560405160200161083991906112bb565b60405160208183030381529060405280519060200120816080015160405160200161086491906112a4565b60405160208183030381529060405280519060200120141561088c578060a001519150610891565b600091505b60405180608001604052803373ffffffffffffffffffffffffffffffffffffffff1681526020018860000b81526020018781526020018360000b81525094505050505092915050565b600181815481106108e757fe5b90600052602060002090600502016000915090508060000160009054906101000a900460000b908060000160019054906101000a900473ffffffffffffffffffffffffffffffffffffffff1690806001018054600181600116156101000203166002900480601f0160208091040260200160405190810160405280929190818152602001828054600181600116156101000203166002900480156109cc5780601f106109a1576101008083540402835291602001916109cc565b820191906000526020600020905b8154815290600101906020018083116109af57829003601f168201915b505050505090806003018054600181600116156101000203166002900480601f016020809104026020016040519081016040528092919081815260200182805460018160011615610100020316600290048015610a6a5780601f10610a3f57610100808354040283529160200191610a6a565b820191906000526020600020905b815481529060010190602001808311610a4d57829003601f168201915b5050505050908060040160009054906101000a900460000b905085565b610a8f610bb5565b60006003811115610a9c57fe5b600260009054906101000a900460ff166003811115610ab757fe5b1480610ae75750600380811115610aca57fe5b600260009054906101000a900460ff166003811115610ae557fe5b145b610b26576040517f08c379a0000000000000000000000000000000000000000000000000000000008152600401610b1d90611389565b60405180910390fd5b6001808054905001816000019060000b908160000b8152505033816020019073ffffffffffffffffffffffffffffffffffffffff16908173ffffffffffffffffffffffffffffffffffffffff1681525050848160400181905250838160600181905250828160800181905250818160a0019060000b908160000b81525050949350505050565b60006001905090565b6040518060c001604052806000800b8152602001600073ffffffffffffffffffffffffffffffffffffffff1681526020016060815260200160608152602001606081526020016000800b81525090565b6040518060800160405280600073ffffffffffffffffffffffffffffffffffffffff1681526020016000800b8152602001606081526020016000800b81525090565b600082601f830112610c5857600080fd5b8135610c6b610c668261143a565b61140d565b9150818183526020840193506020810190508360005b83811015610cb15781358601610c978882610ce5565b845260208401935060208301925050600181019050610c81565b5050505092915050565b600081359050610cca81611604565b92915050565b600081359050610cdf81611614565b92915050565b600082601f830112610cf657600080fd5b8135610d09610d0482611462565b61140d565b91508082526020830160208301858383011115610d2557600080fd5b610d308382846115a4565b50505092915050565b600082601f830112610d4a57600080fd5b8135610d5d610d588261148e565b61140d565b91508082526020830160208301858383011115610d7957600080fd5b610d848382846115a4565b50505092915050565b600081359050610d9c8161162b565b92915050565b600060208284031215610db457600080fd5b6000610dc284828501610cbb565b91505092915050565b600060208284031215610ddd57600080fd5b6000610deb84828501610cd0565b91505092915050565b60008060408385031215610e0757600080fd5b6000610e1585828601610cd0565b925050602083013567ffffffffffffffff811115610e3257600080fd5b610e3e85828601610d39565b9150509250929050565b60008060008060808587031215610e5e57600080fd5b600085013567ffffffffffffffff811115610e7857600080fd5b610e8487828801610d39565b945050602085013567ffffffffffffffff811115610ea157600080fd5b610ead87828801610c47565b935050604085013567ffffffffffffffff811115610eca57600080fd5b610ed687828801610d39565b9250506060610ee787828801610cd0565b91505092959194509250565b600060208284031215610f0557600080fd5b6000610f1384828501610d8d565b91505092915050565b6000610f288383611021565b905092915050565b610f3981611536565b82525050565b610f4881611536565b82525050565b6000610f59826114ca565b610f6381856114f8565b935083602082028501610f75856114ba565b8060005b85811015610fb15784840389528151610f928582610f1c565b9450610f9d836114eb565b925060208a01995050600181019050610f79565b50829750879550505050505092915050565b610fcc81611592565b82525050565b610fdb8161155b565b82525050565b610fea8161155b565b82525050565b6000610ffb826114e0565b611005818561152b565b93506110158185602086016115b3565b80840191505092915050565b600061102c826114d5565b6110368185611509565b93506110468185602086016115b3565b61104f816115e6565b840191505092915050565b6000611065826114d5565b61106f818561151a565b935061107f8185602086016115b3565b611088816115e6565b840191505092915050565b600061109e826114d5565b6110a8818561152b565b93506110b88185602086016115b3565b80840191505092915050565b60006110d160268361151a565b91507f4e6f20707565646520726573706f6e64657220756e612070726567756e74612060008301527f70726f70696100000000000000000000000000000000000000000000000000006020830152604082019050919050565b600061113760138361151a565b91507f4e6f207075656465207265616c697a61727365000000000000000000000000006000830152602082019050919050565b6000611177601c8361151a565b91507f414c474f2050415241204c4c414d4152204c412041544e4543494f4e000000006000830152602082019050919050565b600060c0830160008301516111c26000860182610fd2565b5060208301516111d56020860182610f30565b50604083015184820360408601526111ed8282611021565b915050606083015184820360608601526112078282610f4e565b915050608083015184820360808601526112218282611021565b91505060a083015161123660a0860182610fd2565b508091505092915050565b60006080830160008301516112596000860182610f30565b50602083015161126c6020860182610fd2565b50604083015184820360408601526112848282611021565b91505060608301516112996060860182610fd2565b508091505092915050565b60006112b08284611093565b915081905092915050565b60006112c78284610ff0565b915081905092915050565b60006020820190506112e76000830184610f3f565b92915050565b60006020820190506113026000830184610fc3565b92915050565b600060a08201905061131d6000830188610fe1565b61132a6020830187610f3f565b818103604083015261133c818661105a565b90508181036060830152611350818561105a565b905061135f6080830184610fe1565b9695505050505050565b60006020820190508181036000830152611382816110c4565b9050919050565b600060208201905081810360008301526113a28161112a565b9050919050565b600060208201905081810360008301526113c28161116a565b9050919050565b600060208201905081810360008301526113e381846111aa565b905092915050565b600060208201905081810360008301526114058184611241565b905092915050565b6000604051905081810181811067ffffffffffffffff8211171561143057600080fd5b8060405250919050565b600067ffffffffffffffff82111561145157600080fd5b602082029050602081019050919050565b600067ffffffffffffffff82111561147957600080fd5b601f19601f8301169050602081019050919050565b600067ffffffffffffffff8211156114a557600080fd5b601f19601f8301169050602081019050919050565b6000819050602082019050919050565b600081519050919050565b600081519050919050565b600081519050919050565b6000602082019050919050565b600082825260208201905092915050565b600082825260208201905092915050565b600082825260208201905092915050565b600081905092915050565b600061154182611568565b9050919050565b6000819050611556826115f7565b919050565b60008160000b9050919050565b600073ffffffffffffffffffffffffffffffffffffffff82169050919050565b6000819050919050565b600061159d82611548565b9050919050565b82818337600083830152505050565b60005b838110156115d15780820151818401526020810190506115b6565b838111156115e0576000848401525b50505050565b6000601f19601f8301169050919050565b6004811061160157fe5b50565b6004811061161157600080fd5b50565b61161d8161155b565b811461162857600080fd5b50565b61163481611588565b811461163f57600080fd5b5056fea365627a7a72315820724532ce16ed6b06d0bb7caabfab69a316eb0b507d4ad1694872fa11fa64dddc6c6578706572696d656e74616cf564736f6c63430005100040",
  "source": "// pragma solidity >=0.6.8;\r\npragma solidity >= 0.5.16;\r\npragma experimental ABIEncoderV2;\r\n\r\ncontract Pregunta3 {\r\n        \r\n    address owner;\r\n    \r\n    constructor() public{\r\n        owner = msg.sender; \r\n    }\r\n\r\n    struct Pregunta {\r\n        int8 id;\r\n        address autor;\r\n        string textoPregunta;\r\n        string[] opciones;\r\n        string respuestaCorrecta;\r\n        int8 puntaje;\r\n    }\r\n\r\n    Pregunta[] public preguntas;\r\n\r\n    struct Respuesta {\r\n        address usuario;\r\n        int8 idPregunta;\r\n        string textoRespuesta;\r\n        int8 puntaje;\r\n    }\r\n\r\n    enum Estado {Activo , Lectura , Responder , Bootstrap } Estado public estado;\r\n\r\n    function getEstado() public returns (Estado){\r\n        // if(estado == Estado.Activo){\r\n        //     estadoDevuelto = \"Activo\";\r\n        // }\r\n        return estado;\r\n    }\r\n\r\n    modifier esDuenio() {\r\n        require(msg.sender == owner && false, \"ALGO PARA LLAMAR LA ATNECION\");\r\n        _;\r\n    }\r\n\r\n    function cambiarEstado(Estado nuevoEstado) public esDuenio{\r\n         estado = nuevoEstado;\r\n    }\r\n\r\n    modifier puedeConsultar() {\r\n        require(estado == Estado.Activo || estado == Estado.Lectura || estado == Estado.Responder, \"No puede realizarse\");\r\n        _;\r\n    }\r\n    \r\n    modifier puedeResponder() {\r\n        require(estado == Estado.Activo || estado == Estado.Responder, \"No puede realizarse\");\r\n        _;\r\n    }\r\n\r\n    modifier puedeCrear() {\r\n        require(estado == Estado.Activo || estado == Estado.Bootstrap, \"No puede realizarse\");\r\n        _;\r\n    }\r\n\r\n    modifier noEsAutor(int8 idPregunta, address usuarioQueResponde){\r\n        require(obtenerPregunta(idPregunta).autor != usuarioQueResponde, \"No puede responder una pregunta propia\");\r\n        _;\r\n    }\r\n\r\n    // No est probado\r\n    function obtenerPregunta(int8 idPregunta) public puedeConsultar() returns (Pregunta memory pregunta) {\r\n        for(uint256 i = 0; i < preguntas.length; i++) {\r\n            if(preguntas[i].id == idPregunta){\r\n                pregunta = preguntas[i];\r\n            }\r\n        }\r\n    }\r\n\r\n    // No est probado\r\n    function nuevaPregunta(string memory texto, string[] memory _opciones, string memory respuesta, int8 puntos) public puedeCrear() returns (Pregunta memory pregunta){\r\n        pregunta.id = int8(preguntas.length + 1);\r\n        pregunta.autor = msg.sender;\r\n        pregunta.textoPregunta = texto;\r\n        pregunta.opciones = _opciones;\r\n        pregunta.respuestaCorrecta = respuesta;\r\n        pregunta.puntaje = puntos;\r\n    }\r\n\r\n    function responderPregunta(int8 idPregunta, string memory respuesta) public puedeResponder() noEsAutor(idPregunta, msg.sender) returns (Respuesta memory respuestaRetornada){\r\n        int8 puntosObtenidos;\r\n        Pregunta memory laPregunta = obtenerPregunta(idPregunta);\r\n        if (keccak256(abi.encodePacked((laPregunta.respuestaCorrecta))) == keccak256(abi.encodePacked((respuesta)))){\r\n            puntosObtenidos = laPregunta.puntaje;\r\n        }else{\r\n            puntosObtenidos = 0;\r\n        }\r\n        respuestaRetornada = Respuesta(msg.sender, idPregunta, respuesta, puntosObtenidos);\r\n    }\r\n\r\n    address da;\r\n    function getSender () public view returns (address){\r\n        return msg.sender; // just return msg.sender\r\n    }\r\n\r\n    function getEnum() public view returns (Estado){\r\n        return Estado.Lectura;\r\n    }\r\n    /*\r\n    function promedioRespuestas() returns (int8){\r\n        int16 acumulador=0;\r\n        int8 cuenta=0;\r\n        for(int8 i = 0; i < preguntas.length; i++) {\r\n            if( lalistaderespuestas[i].usuario == msg.sender){\r\n                acumulador += lalistaderespuestas[i].puntaje\r\n                cuenta ++;\r\n            }\r\n        }\r\n        return acumulador/cuenta\r\n    } \r\n    */\r\n}",
  "sourcePath": "C:/Users/santi/Desktop/PHM/tp-2021-front-grupo-5/blockchain/truffle/contracts/Pregunta3.sol",
  "compiler": {
    "name": "solc",
    "version": "0.5.16+commit.9c3226ce.Emscripten.clang"
  },
  "schemaVersion": "3.4.1",
  "updatedAt": "2021-06-18T01:04:09.540Z",
  "networkType": "ethereum",
  "devdoc": {
    "methods": {}
  },
  "userdoc": {
    "methods": {}
  }
}